:020000040800F2
:10000000684D00205D020008CD060008CF060008FC
:10001000D3060008D7060008DB0600080000000031
:100020000000000000000000000000009D0100082A
:10003000DF06000800000000F9010008E1060008E2
:1000400077020008770200087702000877020008AC
:10005000770200087702000877020008770200089C
:10006000770200087702000877020008770200088C
:10007000770200087702000877020008770200087C
:10008000770200087702000877020008770200086C
:10009000770200087702000877020008770200085C
:1000A000770200087702000877020008770200084C
:1000B000770200087702000877020008770200083C
:1000C000770200087702000877020008770200082C
:1000D00077020008F106000877020008770200089E
:1000E000770200087702000877020008770200080C
:1000F00077020008770200087702000877020008FC
:1001000077020008770200087702000877020008EB
:1001100077020008770200087702000877020008DB
:1001200077020008770200087702000877020008CB
:1001300077020008770200087702000877020008BB
:1001400077020008770200087702000877020008AB
:10015000770200087702000877020008770200089B
:10016000770200087702000877020008770200088B
:1001700077020008770200087702000800000000FC
:100180007702000877020008DFF80CD006F0CCFBFD
:1001900000480047B3030008684D00202C4B196845
:1001A0000868B0E8F04F80F30988BFF36F8F4FF015
:1001B000000080F3118870470000000008480068C4
:1001C000006880F308884FF0000080F3148862B65E
:1001D00061B6BFF34F8FBFF36F8F00DF00BF00BF6B
:1001E00008ED00E0DFF80C00016841F470010160E7
:1001F000704700BF88ED00E0EFF30980BFF36F8F19
:10020000134B1A681EF0100F08BF20ED108A20E96A
:10021000F04F106009B44FF0500080F31188BFF325
:100220004F8FBFF36F8F03F0BEF94FF0000080F3E4
:10023000118809BC19680868B0E8F04F1EF0100F6B
:1002400008BFB0EC108A80F30988BFF36F8F704746
:1002500018000020EFF30580704700000648804733
:1002600006480047FEE7FEE7FEE7FEE7FEE7FEE79B
:10027000FEE7FEE7FEE7FEE79514000889010008A7
:1002800010B5044606F039FA00F07FFA00F04FFA94
:100290006B48006802F045FE06F056FA10BD70B5D6
:1002A00005206849096821F00F010143654A116082
:1002B00000BF00BF00BF6348006800F00F000528C2
:1002C000F8D14FF480406049096821F4804101432E
:1002D0005D4A116000BF00BF5C48006840F4803098
:1002E0005A49086000BF00BF00BF58480068C0F30B
:1002F00040400028F8D04FF480000421A8220023B9
:1003000040EA010444EA8214504D2D1D2D68504EE0
:1003100035402C434D4D2D1D2C602C46246824F473
:1003200040341C432C6000BF00BF281F006840F011
:100330008070291F086000BF00BF00BF43480068ED
:10034000C0F340600028F8D0002040490831096817
:1003500021F0F00101433D4A0832116000BF4FF423
:10036000A0501146096821F4E0510143116000BF1B
:100370004FF400401146096821F4604101431160C7
:1003800000BF02201146096821F0030101431160FA
:1003900000BF00BF00BF2D480830006800F00C000F
:1003A0000828F7D12B4800F0E8FC2A4800F007FDA8
:1003B00070BD1CB54FF480402449443109680143A5
:1003C000224A44321160114609680140019100BF80
:1003D00000BF8003111F09680143121F11601146FD
:1003E00009680140019100BF00BF032002461A4B7B
:1003F00019684FF6FF031940184B0B4343EA0221DB
:10040000154B196000BFFFF74AFF00F02FF800F00E
:1004100091F800F03CF904F0A3FC00F07CF80848E7
:10042000012100238022CDE900100DA1AFF2AF1011
:1004300002F008FD03F048FA00BFFEE77047000035
:1004400000000020003C02400070004000380240E4
:100450000080BFFF007A030A0CED00E00000FA05FF
:1004600073746172745F7461736B000000B587B060
:10047000182101A806F02EFA102000F033F804200D
:1004800000F030F8202000F02DF8802000F02AF84D
:10049000012000F027F84FF4C0600104174A916171
:1004A00000BF1C20019000200290059001A9144873
:1004B00000F0E6F94FF4C0600190012002900020A6
:1004C00003900490059001A90C4800F0D9F901208F
:1004D000019000200290059001A90A4800F0D0F98F
:1004E00007B000BD08B5084909680143064A116014
:1004F000114609680140009100BF08BD0014024088
:1005000000100240000002403038024000BF0120CD
:1005100005F04DF8FBE710B5044A0021AFF21300D7
:1005200004F049FD0249086010BD0000A4690008FC
:10053000040000202DE9F0418EB01C2107A806F030
:10054000C9F9182101A806F0C5F910205A4909680F
:100550000143594A1160114609680140009100BFEA
:1005600000BF01205449143909680143524A143A22
:100570001160114609680140009100BF00BF4FF4AF
:10058000C06001900220029003200390002004909C
:1005900005900720069001A9484800F071F925212F
:1005A000474B1B68C3F30220032400250346C3F115
:1005B000070CBCF1040F02D94FF0040C01E0C3F1A9
:1005C000070C674603F1040CBCF1070F02D24FF091
:1005D000000C01E0A3F1030C66464FF0010C0CFA8D
:1005E00007FCACF1010C0CEA040C0CFA06FC4FF011
:1005F000010808FA06F8A8F1010808EA05084CEA1B
:10060000080200BF002904DB1007030E2D484354E5
:1006100007E01007040E2A480C3001F00F031B1FDF
:10062000C45400BF2520002809DB00F01F0201216F
:1006300091404209920002F1E022C2F8001100BF8D
:100640004FF4E13007900020089009900A900C20A8
:100650000B9000200C900D9007A91B4800F062FE43
:1006600000BF1948006920F4904017490861084606
:10067000406920F02A00486100BF00BF0846C068FA
:1006800040F40050C86000BF0EB0BDE8F08100BF6C
:100690000D48C06840F020000B49C86000BF70479B
:1006A00000BF094A126802F04002002AF9D0C2B223
:1006B000054B5A6070470000443802400000024079
:1006C0000CED00E000E400E000100140704700BFC6
:1006D000FEE700BFFEE700BFFEE700BFFEE7704792
:1006E00010B503F0D6FB012801D006F049F810BD83
:1006F00000BF0A490968C1F3401171B120210A0401
:10070000074B9A6100BF00BF04494968C8B200BFE7
:1007100000BF0249486000BF00BF704700100140A1
:100720000000024002E00A2002F00DFEFBE71CB5CB
:100730000548022100233222CDE9001003A1AFF2C7
:100740001B0002F07FFB1CBD0C0000204B45593103
:100750005F7461736B00000012A006F0F7F813E0FD
:100760004FF4FA7002F0EFFD4FF4C0600F4988615A
:1007700000BF4FF4FA7002F0E6FD4FF4C0600104D0
:100780000A4A916100BF00BFEAE71CB5084803218F
:1007900000233222CDE9001006A1AFF2430002F09F
:1007A00051FB1CBD6C6564310A000000001402405E
:1007B000100000206C6564315F7461736B00000091
:1007C00070B5044600258848844206D1012000F017
:1007D000FEF8012000F001F950E08448844206D17F
:1007E000022000F0F4F8022000F0F7F846E080481C
:1007F000844206D1042000F0EAF8042000F0EDF86D
:100800003CE07C48844206D1082000F0E0F8082053
:1008100000F0E3F832E07848844206D1102000F07E
:10082000D6F8102000F0D9F828E07448844206D1A8
:10083000202000F0CCF8202000F0CFF81EE0704817
:10084000844206D1402000F0C2F8402000F0C5F8F4
:1008500014E06C48844206D1802000F0B8F8802073
:1008600000F0BBF80AE06848844206D1801500F029
:10087000AEF8A01500F0B1F800E00125284670BDE3
:10088000F0B502460B4600240021186890FAA0F04B
:10089000B0FA80F48AE00125A540186800EA050155
:1008A00000297DD05868012802D0586802281CD140
:1008B0009868956891FAA1F6B6FA86F6770003264D
:1008C000BE40B54391FAA1F6B6FA86F6760000FA74
:1008D00006F63543956000BFD86855688D4301FB27
:1008E00000F63543556000BF00BF1869D56891FA1E
:1008F000A1F6B6FA86F677000326BE40B54391FA14
:10090000A1F6B6FA86F6760000FA06F63543D5600B
:1009100000BF5868022831D191FAA1F0B0FA80F0F6
:10092000082814D25869156A91FAA1F6B6FA86F623
:10093000B7000F26BE40B54391FAA1F6B6FA86F687
:10094000B60000FA06F63543156200BF16E0586996
:10095000556A0E0A96FAA6F6B6FA86F6B7000F267C
:10096000BE40B5430E0A96FAA6F6B6FA86F6B6006B
:1009700000FA06F63543556200BF00BF5868156897
:1009800091FAA1F6B6FA86F677000326BE40B54383
:1009900091FAA1F6B6FA86F6760000FA06F600E0BD
:1009A00003E03543156000BF00BF641C1868E040D9
:1009B00000287FF470AFF0BD4FF6FF710160032196
:1009C000416000218160C1600161416170470F4950
:1009D000096801430D4A116070470C490968814359
:1009E0000A4A116070470000000002400004024003
:1009F00000080240000C02400010024000140240B7
:100A000000180240001C0240002002401038024042
:100A100008B500BFC648006840F00100C44908603E
:100A200000BF00BF00BFC2480068C0F340000028FC
:100A3000F8D00020BE4908310860BD480068009029
:100A4000BC49009808400090009820F08060009019
:100A5000B749009808601020096821F0F80141EAC0
:100A6000C001B34A116000BF00BF00F056F9002872
:100A7000FBD1B148AE49091D0860B048AC4984318A
:100A80000860AB480C30006820F4F850A8490C31DD
:100A900008600846006820F40050086008460068B6
:100AA00040F41F0008600846006840F40010086029
:100AB0009F487430006820F001009D49743108603F
:100AC0000846006840F080700860002008BD0146BC
:100AD00000BF97480830006800F46040984A02EB75
:100AE0005030027821FA02F07047014600BF90486A
:100AF0000830006800F4E050914A02EB9020027840
:100B000021FA02F07047014600BF894808300068AA
:100B100000F0F00000098B4A125C21FA02F07047E5
:100B20002DE9F041044600250026002700BF80483B
:100B3000001D006800F4800006461EB1B6F5800F67
:100B400004D101E0804D03E0804D01E07E4D00BF07
:100B500000BF082C16D100BF7548001D006800F0CA
:100B60003F00B5FBF0F800F0DDF808FB00F8704836
:100B7000001D006800F44030012101EB10404000EE
:100B8000B8FBF0F73846BDE8F08110B5002400BF8F
:100B900067480830006800F00C0020B1042804D039
:100BA000082809D103E0684C08E0684C06E00820FA
:100BB000FFF7B6FF044601E0634C00BF00BF2046CC
:100BC00010BD10B50446FFF7E0FF20602068FFF776
:100BD0009AFF60606068FFF788FFA0606068FFF7B9
:100BE00076FFE06010BD10B500210022002000BF9C
:100BF0004F4B1B1D1B6803F480031A462AB1B2F544
:100C0000800F01D1514902E000BF4F4900BF00BF32
:100C100000BF474B1B1D1B6803F03F03B1FBF3F301
:100C2000434C84342468C4F388146343404C8434B4
:100C3000246804F0E044240FB3FBF4F010BD30B599
:100C400004460025B4F5000F17D100BF384808301E
:100C50000068204018B1B0F5000F0AD10AE000BFCB
:100C600033480068C0F3C06010B1FFF7BCFF054611
:100C700002E000BF364D00BF00BF284630BD70B552
:100C80000024002500BF2A48001D006800F48000F1
:100C900005461DB1B5F5800F04D101E02A4C03E0F3
:100CA0002A4C01E0284C00BF00BF00BF2048001DB7
:100CB000006800F03F00B4FBF0F600F033F8464364
:100CC0001B48001D006800F07060000EB6FBF0F0DD
:100CD00070BD70B504460025B4F1706F05D100F009
:100CE0001CF810B1FFF7CBFF0546284670BD70B564
:100CF0000546002400F011F810B1FFF7C0FF0446CC
:100D0000204670BD70B50546002400F006F810B10D
:100D1000FFF7B5FF0446204670BD05480068C0F3E4
:100D2000406070470248001D0068C0F3881070479B
:100D300000380240FFFFF2FE103000240030002097
:100D4000D8690008C86900080024F40000127A007D
:100D50000080BB0070B540EA010444EA8214D14D22
:100D60002D68D14E35402C43CE4D2C602C46246846
:100D700024F440341C432C6070BD4FF47A71B0FBF6
:100D8000F1F2521E4FF0E0235A6100229A610522CF
:100D90001A6100BF704708B54FF0E0210969009162
:100DA00000BF411C01B1401C06E04FF0E021096981
:100DB00001F4803101B1401E0028F6D108BDBB49C5
:100DC0000860704710B50246002000210AB90120D2
:100DD0004DE000BFB64B1B6803F48043B3F5804F72
:100DE00019D1B44B9A4201D901B90521B24B9A42AB
:100DF00001D901B90421B14B9A4201D901B90321AA
:100E0000AF4B9A4202D909B9022104E0AD4B9A4294
:100E100001D901B9012100BFA54B1B6803F4804330
:100E2000A3B9A94B9A4201D901B90421A34B9A4213
:100E300001D901B90321A24B9A4202D909B9022171
:100E400004E0A04B9A4201D901B9012100BF9F4B98
:100E50001B6823F00F030B439C4C236000BF00BFB3
:100E600023461B6803F00F038B4200D0012010BD06
:100E70002DE9F04107460C46002500262078C0F3F6
:100E800003109349085C27FA00F688480068B042CE
:100E900003D23046FFF796FF0546EDBB00BF814801
:100EA000001F006840F080707E49091F086000BF85
:100EB00000BF00F0F1F80128FBD120687949091D35
:100EC000096821F0F0010143764A121D116000BF4C
:100ED00002201146096821F003010143116000BF9F
:100EE00000BF00BF6F48001D006800F00C0008281C
:100EF000F7D160686B49091D096821F4E05101438D
:100F0000684A121D116000BFA0681146096821F4EB
:100F100060410143116000E001E000BF00BF634891
:100F20000068B04203D93046FFF74CFF054615B9BB
:100F30003046FFF744FF2846BDE8F08110B5024671
:100F400000200B7803F03F03B2FBF3F08B88C3F370
:100F50000803584301248B6804EB13435B00B0FB88
:100F6000F3F010BD10B5002400F096F800B1012494
:100F700000BF4C48001F0068C0F3C06000B10124EE
:100F8000204610BD2DE9F04104460D4600260027FD
:100F9000FFF7E8FF10BB21464E48FFF7CFFF07469B
:100FA00000F074F801280ED000BF3E48001F006812
:100FB00040F001003B49091F086000BF00BF00F07E
:100FC00065F80128FBD1002094E80E00FFF7C2FE6F
:100FD00029463846FFF74CFF064600E0012630461A
:100FE000BDE8F0812DE9F04707460D4614461E4640
:100FF0004FF00008C146FFF7B5FFD8BB2146384681
:10100000FFF79CFF814600F03BF8012826D0012D18
:101010000AD100BF2348001F006840F48020214906
:10102000091F086000BF0AE000BF1E48001F0068DB
:1010300020F480201B49091F086000BF00BF00BFCB
:101040001848001F006840F480301649091F0860E6
:1010500000BF00BF00F014F80128FBD14FF480005E
:1010600094E80E00FFF776FE31464846FFF700FF92
:10107000804602E0FFE74FF001084046BDE8F087F8
:101080000848001F0068C0F3404070470548001F33
:101090000068C0F3400070470248001F0068C0F3BA
:1010A00040607047043802400080BFFF14000020F9
:1010B0000070004080D1F008000E2707804A5D05CF
:1010C0000087930380C3C901001BB700003C0240A6
:1010D000C86900080024F4002DE9FC5F06460C46B0
:1010E00091461D46B9F5004F68D10220A0FB05705E
:1010F00003461920A4FB00A001463A46504605F0DD
:101100009FFB6421B0FBF1F04FEA001A0220A0FB24
:1011100005710B461920A4FB00B13A46584605F06C
:101120008FFB83460220A0FB057003461920A4FB19
:1011300000013A46CDE9000105F082FB6421B0FBD5
:10114000F1F000EBC00101EB0010ABEB80003221AD
:1011500001EBC0006421B0FBF1F000F0F8000AEBF5
:10116000400A0220A0FB057003461920A4FB00B131
:101170003A46584605F064FB83460220A0FB057002
:1011800003461920A4FB00013A46CDE9000105F011
:1011900057FB6421B0FBF1F000EBC00101EB001044
:1011A000ABEB8000322101EBC0006421B0FBF1F019
:1011B00000F00700504480B2B06067E00420A0FB5C
:1011C000057003461920A4FB00A001463A4650468C
:1011D00005F036FB82460420A0FB05711920A4FB14
:1011E00000B084463A460B465846614605F028FB57
:1011F0006421B0FBF1F000EBC00101EB0010AAEBA1
:101200008000322101EB00106421B0FBF1F000F00E
:10121000F00A0420A0FB057003461920A4FB00B0CF
:1012200001463A46584605F00BFB6421B0FBF1F04D
:101230000AEB001A0420A0FB057003461920A4FB4A
:1012400000B13A46584605F0FBFA83460420A0FB5D
:10125000057003461920A4FB00013A46CDE90001C0
:1012600005F0EEFA6421B0FBF1F000EBC00101EBF8
:101270000010ABEB8000322101EB00106421B0FBC9
:10128000F1F000F00F00504480B2B060BDE8FC9F68
:1012900070B5044600257848844206D1102000F03D
:1012A000DBF8102000F0E0F83AE07448844208D1FE
:1012B0004FF4003000F0C4F84FF4003000F0C6F8EE
:1012C0002EE06F48844208D14FF4802000F0B8F837
:1012D0004FF4802000F0BAF822E06A48844206D138
:1012E000202000F0B9F8202000F0BEF818E0664891
:1012F000844208D14FF4002000F0A2F84FF40020FF
:1013000000F0A4F80CE06148844208D14FF480104A
:1013100000F096F84FF4801000F098F800E00125F6
:10132000284670BD2DE9FF4104460D4601270026E1
:10133000204600F080F8002845D1E9686868084335
:1013400029690843A9690843E16849F20C6291439D
:101350000843E060A868216921F4405101432161FC
:1013600000BF6869616921F440710143616100BF98
:101370006846FFF726FC4048844201D1039E17E0EF
:101380003E48844201D1029E12E03D48844201D190
:10139000029E0DE03B48844201D1039E08E03A489A
:1013A000844201D1029E03E03848844200D1029E6B
:1013B0004EB1286838B10027314620462B68AA690B
:1013C000FFF78AFE00BF384604B0BDE8F0814FF455
:1013D00016510160002141608160C1600C210161F2
:1013E000002141618161704770B504460D460026B9
:1013F000204600F020F8A8B9286830B900BF20695D
:1014000020F40060206100BF0DE0686840F40060D7
:10141000A9680843E9680843216921F47061084319
:10142000206100E00126304670BD0021016041606E
:101430008160C16070470146C868C0F340307047A2
:10144000134909680143124A11607047104909683D
:1014500081430F4A116070470D49091D0968014316
:101460000B4A121D116070470949091D0968814323
:10147000074A121D116070470010014000440040EF
:101480000048004000140140004C00400050004063
:10149000203802403048006840F470002E4908604F
:1014A0004FF000602C4980390860704770B500200B
:1014B0000022022300240221284D2D6805F00C0093
:1014C00020B1042806D0082834D107E0244D254E49
:1014D000356033E0244D234E35602FE01F4D2D1F26
:1014E0002D68C5F380541D4D2D1F2D6805F03F015B
:1014F00054B11D4DB5FBF1F5184E361F3668C6F3D5
:10150000881605FB06F209E0154DB5FBF1F5134E03
:10151000361F3668C6F3881605FB06F20F4D2D1FE1
:101520002D68C5F301456D1C6B00B2FBF3F50D4E44
:10153000356003E00A4D0B4E356000BF00BF074D1C
:101540002D68C5F30315094E705D064D2D68C54025
:10155000044E356070BD000088ED00E008380240A0
:101560000024F4001400002000127A00C86900086A
:1015700038B5054655B900BF502080F31188BFF338
:101580004F8FBFF36F8F00BF00BFFEE7202000909A
:101590000098202801D1012000E0002050B900BFB0
:1015A000502080F31188BFF34F8FBFF36F8F00BFC0
:1015B00000BFFEE72C4634B100202060201D00F063
:1015C0005FFA01202077204638BD10B5202004F0B6
:1015D000AAFE044634B100202060201D00F050FA1D
:1015E00000202077204610BD2DE9FE4F0746884693
:1015F000002001903C46009057B900BF502080F376
:101600001188BFF34F8FBFF36F8F00BF00BFFEE79E
:1016100008F07F4008B9012000E0002050B900BF69
:10162000502080F31188BFF34F8FBFF36F8F00BF3F
:1016300000BFFEE704F1040909F10800029001F07F
:1016400018FED9F80C60206840EA0800206026E007
:10165000D6F804B035680020009005F07F4A25F0E8
:101660007F450AF0806028B92068284040B10120F9
:10167000009005E020682840A84201D10120009098
:10168000009858B10AF0807010B101982843019079
:10169000206840F00071304602F00CFB5E46029874
:1016A0008642D5D1206801998843206001F040FD31
:1016B0002068BDE8FE8F2DE9F84F83468846144622
:1016C0001F465D460020009004F07F4008B90120CD
:1016D00000E0002050B900BF502080F31188BFF314
:1016E0004F8FBFF36F8F00BF00BFFEE70CB101202B
:1016F00000E0002050B900BF502080F31188BFF3F4
:101700004F8FBFF36F8F00BF00BFFEE702F0C1FB3A
:1017100000B90FB9012000E0002050B900BF5020EF
:1017200080F31188BFF34F8FBFF36F8F00BF00BFEF
:10173000FEE701F09EFDD5F8009041465846FFF7C0
:1017400053FF49EA08002040A04206D149EA0806B2
:101750002868A043286000270BE03FB144F0A06157
:101760003A46281D02F017FA002602E02E680120F2
:10177000009001F0DDFC824607B3BAF1000F07D1FB
:101780004FF08050BD490860BFF34F8FBFF36F8F9C
:1017900002F083FC064606F0007068B904F0ADFF65
:1017A0002E6806EA0400A04202D12868A0432860FF
:1017B00004F0CAFF0120009026F07F463046BDE8C5
:1017C000F88F10B50346002022B903EA010434B1B2
:1017D000012004E003EA01048C4200D1012010BD85
:1017E0002DE9FF4F83B081460D461746DDF8408056
:1017F0004C464FF0000A00200190B9F1000F0AD1C9
:1018000000BF502080F31188BFF34F8FBFF36F8F5D
:1018100000BF00BFFEE705F07F4008B9012000E0EF
:10182000002050B900BF502080F31188BFF34F8FC4
:10183000BFF36F8F00BF00BFFEE70DB1012000E0D6
:10184000002050B900BF502080F31188BFF34F8FA4
:10185000BFF36F8F00BF00BFFEE702F01AFB10B9A5
:10186000B8F1000F01D1012000E0002050B900BF05
:10187000502080F31188BFF34F8FBFF36F8F00BFED
:1018800000BFFEE701F0F5FC206800902946069AAB
:101890000098FFF796FF0290029838B1009E4FF033
:1018A0000008C7B12068A843206014E0B8F1000F19
:1018B00003D1009E012001900DE00FB14AF0807A23
:1018C000069808B14AF0806A45EA0A014246201D9E
:1018D00002F061F9002601F02BFC8346B8F1000FFD
:1018E00023D0BBF1000F07D14FF08050634908604F
:1018F000BFF34F8FBFF36F8F02F0CFFB064606F0AA
:10190000007080B904F0F9FE266829463046069A30
:10191000FFF757FF18B117B12068A84320600120D6
:10192000019004F011FF26F07F46304607B0BDE875
:10193000F08F2DE9F04105460E462C4655B900BF03
:10194000502080F31188BFF34F8FBFF36F8F00BF1C
:1019500000BFFEE706F07F4008B9012000E000204C
:1019600050B900BF502080F31188BFF34F8FBFF3F1
:101970006F8F00BF00BFFEE704F0BFFE276820683E
:10198000B043206004F0E0FE3846BDE8F08170B559
:1019900004460D4629462046FFF7CBFF70BD70B5C3
:1019A00004460D4600232A462146AFF21D0003F0EF
:1019B0007FF90646304670BD70B501460B4600BF44
:1019C0005025EFF3118085F31188BFF34F8FBFF3DC
:1019D0006F8F00BF02461C68104680F3118800BF5D
:1019E000204670BD70B505462E46341D01F041FC01
:1019F00018E004F10800E168814201D0012000E014
:101A0000002050B900BF502080F31188BFF34F8FE2
:101A1000BFF36F8F00BF00BFFEE74FF00071E068BB
:101A200002F048F920680028E3D1307F10B9304631
:101A300004F00DFD01F07CFB70BD70B504460D4651
:101A400029462046FFF7D0FD70BD2DE9F041044640
:101A50000D46164633462A462146AFF2210003F0D2
:101A600027F907463846BDE8F08101460A4609B91C
:101A7000002000E0906970478161704704ED00E04C
:101A800000F1080141604FF0FF31816000F1080171
:101A9000C160016100210160704700210161704750
:101AA00042684A6093688B609368596091600861EE
:101AB00003685B1C0360704710B502460B685C1C32
:101AC0000CB9106907E002F1080000E040684468C2
:101AD00024689C42FAD944684C604C68A1608860D4
:101AE00041600A611468641C146010BD01460A69F3
:101AF000D1E901309860D1E901035860506888420B
:101B000001D188685060002008611068401E106094
:101B10001068704770B505460E462C4654B900BF94
:101B2000502080F31188BFF34F8FBFF36F8F00BF3A
:101B300000BFFEE704F0E1FDD4E90F12206801FBCD
:101B40000200A0600020A06320686060E06B401E7F
:101B5000226C216800FB0211E160FF2084F8440040
:101B600084F845009EB9206908B9012000E00020F2
:101B7000A8B904F1100002F05EF880B14FF0805077
:101B8000FE490860BFF34F8FBFF36F8F07E004F18A
:101B90001000FFF775FF04F12400FFF771FF04F058
:101BA000D3FD012070BD2DE9F04106460D461746D4
:101BB0009846069C0DB9246000E02760E663256422
:101BC00001212046FFF7A6FF84F84C80BDE8F08194
:101BD0002DE9F84380460E4617461D46DDF8209055
:101BE000B8F1000F01D0012000E0002050B900BF83
:101BF000502080F31188BFF34F8FBFF36F8F00BF6A
:101C000000BFFEE70DB1012000E0002050B900BF89
:101C1000502080F31188BFF34F8FBFF36F8F00BF49
:101C200000BFFEE707B10EB1012000E0002050B96F
:101C300000BF502080F31188BFF34F8FBFF36F8F29
:101C400000BF00BFFEE707B90EB9012000E0002089
:101C500050B900BF502080F31188BFF34F8FBFF3FE
:101C60006F8F00BF00BFFEE7502000900098502803
:101C700001D1012000E0002050B900BF502080F3C6
:101C80001188BFF34F8FBFF36F8F00BF00BFFEE718
:101C900000BF2C464CB1012084F846004B463A4622
:101CA000314640460094FFF77EFF2046BDE8F883AA
:101CB0002DE9F84305460E4690460DB1012000E09F
:101CC000002050B900BF502080F31188BFF34F8F20
:101CD000BFF36F8F00BF00BFFEE70EB9002701E022
:101CE00005FB06F707F1500004F01DFB044664B144
:101CF000A14609F15009002084F8460043464A46AF
:101D0000314628460094FFF74EFF2046BDE8F88391
:101D100070B5044604F0F1FC94F9455010E0606A97
:101D200008B9012000E0002038B904F1240001F0D6
:101D300082FF18B102F08AF800E003E0681E45B2A5
:101D4000002DECDC00BFFF2084F8450004F0FCFC13
:101D500004F0D3FC94F9445010E0206908B9012044
:101D600000E0002048B904F1100001F064FF08B160
:101D700002F06CF8681E45B200E001E0002DECDCDA
:101D800000BFFF2084F8440004F0DEFC70BD70B595
:101D9000054604F0B2FCA86BE96B884201D101242E
:101DA00000E0002404F0D0FC204670BD2DE9F04195
:101DB00004460F4615464FF00008A66B206C48B944
:101DC000206800282CD1A06802F0BAF880460020D4
:101DD000A06025E07DB93946226C606804F061FDA1
:101DE000216C606808446060D4E90101884217D31F
:101DF0002068606014E03946226CE06804F051FD10
:101E0000216CE068411AE1602168E068884203D2F1
:101E1000216CA068411AE160022D01D106B1761E45
:101E2000701CA0634046BDE8F0812DE9FF4383B0FC
:101E3000064688461D464FF00009344654B900BF97
:101E4000502080F31188BFF34F8FBFF36F8F00BF17
:101E500000BFFEE7B8F1000F01D1206C08B90120E6
:101E600000E0002050B900BF502080F31188BFF37C
:101E70004F8FBFF36F8F00BF00BFFEE7022D02D16F
:101E8000E06B012801D1012000E0002050B900BF23
:101E9000502080F31188BFF34F8FBFF36F8F00BFC7
:101EA00000BFFEE701F0F5FF08B9059808B9012069
:101EB00000E0002050B900BF502080F31188BFF32C
:101EC0004F8FBFF36F8F00BF00BFFEE700BF04F06E
:101ED00014FCA06BE16B884201D3022D28D12A4665
:101EE00041462046FFF762FF0746606A08B90120B5
:101EF00000E0002068B904F1240001F09CFE88B1E4
:101F00004FF080501D490860BFF34F8FBFF36F8FB4
:101F100008E03FB14FF0805018490860BFF34F8F81
:101F2000BFF36F8F04F010FC012007B0BDE8F08311
:101F3000059818B904F008FC0020F6E7B9F1000F85
:101F400004D101A801F039FF4FF0010904F0FCFBB6
:101F500001F08FF904F0D1FB94F94400401C10B952
:101F6000002084F8440094F94500401C10B900207A
:101F700084F8450004F0E8FB05A901E004ED00E069
:101F800001A801F021FFF0B92046FFF700FFA0B142
:101F900004F11000059901F0E4FD2046FFF7B8FEBA
:101FA00001F0C6F8002892D14FF08050FD4908603A
:101FB000BFF34F8FBFF36F8F89E72046FFF7A8FE6F
:101FC00001F0B6F883E72046FFF7A2FE01F0B0F873
:101FD0000020AAE710B5044654B10020A06020609C
:101FE0000021E16000231A4619462046FFF71DFF35
:101FF00010BD2DE9F04104460126002722460021AC
:102000000120FFF755FE05462846FFF7E3FF284667
:10201000BDE8F0812DE9F84304460D4601274FF055
:1020200000082B460022114601200094FFF7D0FD46
:1020300006463046FFF7CEFF3046BDE8F88370B560
:102040000446264604F059FB306808B9B56800E03C
:10205000002504F079FB284670BD014651B900BF48
:10206000502282F31188BFF34F8FBFF36F8F00BFF1
:1020700000BFFEE70A680AB9886800E000207047E0
:1020800070B505462C4654B900BF502080F3118826
:10209000BFF34F8FBFF36F8F00BF00BFFEE701F0AC
:1020A000F5FEA16888420CD1E068401EE060E0685F
:1020B00028B900231A4619462046FFF7B6FE012626
:1020C00000E00026304670BD01464A6A22B10A6B24
:1020D0001268C2F1380000E00020704770B5054674
:1020E00004F00BFBA86B08B9012400E0002404F005
:1020F0002BFB204670BD2DE9F34182B005464FF021
:1021000000082C46002654B900BF502080F31188E7
:10211000BFF34F8FBFF36F8F00BF00BFFEE7206C90
:1021200008B9012000E0002050B900BF502080F322
:102130001188BFF34F8FBFF36F8F00BF00BFFEE763
:1021400001F0A7FE08B9039808B9012000E00020BB
:1021500050B900BF502080F31188BFF34F8FBFF3F9
:102160006F8F00BF00BFFEE700BF04F0C6FAA76B89
:10217000FFB1781EA063206810B901F09AFFA0603B
:10218000206908B9012000E0002060B904F11000C6
:1021900001F051FD38B14FF0805082490860BFF323
:1021A0004F8FBFF36F8F04F0CFFA012004B0BDE86A
:1021B000F081039898B90EB9012000E0002050B9D1
:1021C00000BF502080F31188BFF34F8FBFF36F8F94
:1021D00000BF00BFFEE704F0B7FA0020E6E7B8F161
:1021E000000F04D1684601F0E8FD4FF0010804F04B
:1021F000ABFA01F03EF804F080FA94F94400401C78
:1022000010B9002084F8440094F94500401C10B92E
:10221000002084F8450004F097FA03A9684601F00D
:10222000D3FD40BB2046FFF759FFF0B1206838B915
:1022300004F063FAA06801F038FE064604F084FA60
:1022400004F12400039901F08CFC2046FFF760FDA7
:1022500000F06EFF002888D14FF08050514908608F
:10226000BFF34F8FBFF36F8F7FE72046FFF750FD1F
:1022700000F05EFF79E72046FFF74AFD00F058FFC7
:102280002046FFF72BFF0028EED05EB104F035FAB0
:102290002046FFF719FF07463946A06801F09CFE6B
:1022A00004F052FA002081E72DE9F04106460F467E
:1022B000344654B900BF502080F31188BFF34F8FCC
:1022C000BFF36F8F00BF00BFFEE701F0DFFDA16825
:1022D000884204D1E068401CE060012508E03946EE
:1022E0002046FFF708FF054615B1E068401CE06096
:1022F0002846BDE8F081F8B505460E4617460DB1F3
:10230000012000E0002050B900BF502080F3118868
:10231000BFF34F8FBFF36F8F00BF00BFFEE7AE422A
:1023200001D8012000E0002050B900BF502080F308
:102330001188BFF34F8FBFF36F8F00BF00BFFEE761
:1023400002203B460022114600902846FFF740FC41
:10235000044604B1A6632046F8BD70B505460E4696
:102360000DB1012000E0002050B900BF502080F3E3
:102370001188BFF34F8FBFF36F8F00BF00BFFEE721
:10238000AE4201D8012000E0002068B900BF502013
:1023900080F31188BFF34F8FBFF36F8F00BF00BF73
:1023A000FEE7000004ED00E0022200212846FFF7CE
:1023B0007FFC044604B1A663204670BD2DE9F05FA2
:1023C00007468A4690461E463C4654B900BF5020F8
:1023D00080F31188BFF34F8FBFF36F8F00BF00BF33
:1023E000FEE7BAF1000F01D1206C08B9012000E02E
:1023F000002050B900BF502080F31188BFF34F8FE9
:10240000BFF36F8F00BF00BFFEE7022E02D1E06B6B
:10241000012801D1012000E0002050B900BF502068
:1024200080F31188BFF34F8FBFF36F8F00BF00BFE2
:10243000FEE704F0BDF900BF5021EFF3118081F3F6
:102440001188BFF34F8FBFF36F8F00BF0546A06B9E
:10245000E16B884201D3022E23D194F945B0324674
:1024600051462046FFF7A2FC0BF1010088B9606AD3
:1024700008B9012000E0002080B904F1240001F037
:10248000DAFB58B1B8F1000F08D00120C8F80000FD
:1024900004E00BF1010040B284F845004FF001095F
:1024A00001E04FF0000900BF85F3118800BF4846E6
:1024B000BDE8F09F2DE9F04706460F46344654B973
:1024C00000BF502080F31188BFF34F8FBFF36F8F91
:1024D00000BF00BFFEE7206C08B9012000E000202B
:1024E00050B900BF502080F31188BFF34F8FBFF366
:1024F0006F8F00BF00BFFEE7206808B9A06808B969
:10250000012000E0002050B900BF502080F3118866
:10251000BFF34F8FBFF36F8F00BF00BFFEE704F024
:1025200047F900BF5021EFF3118081F31188BFF309
:102530004F8FBFF36F8F00BF0546D4F83890E06B24
:1025400048451ED994F945A009F10100A0630AF19C
:10255000010070B9606A08B9012000E0002068B984
:1025600004F1240001F067FB40B13FB10120386065
:1025700004E00AF1010040B284F845004FF0010880
:1025800001E04FF0000800BF85F3118800BF40460E
:10259000BDE8F08770B504460D46206C70B1216C23
:1025A000E0680144E160D4E90210884201D3216867
:1025B000E1602846226CE16804F073F970BD2DE9F2
:1025C000F74183B005460E464FF000082C4654B93B
:1025D00000BF502080F31188BFF34F8FBFF36F8F80
:1025E00000BF00BFFEE70EB9206C08B9012000E073
:1025F000002050B900BF502080F31188BFF34F8FE7
:10260000BFF36F8F00BF00BFFEE701F042FC08B9C7
:10261000059808B9012000E0002050B900BF502003
:1026200080F31188BFF34F8FBFF36F8F00BF00BFE0
:10263000FEE700BF04F061F8A76BF7B13146204612
:10264000FFF7A8FF781EA063206908B9012000E009
:10265000002060B904F1100001F0EDFA38B14FF03C
:102660008050FB490860BFF34F8FBFF36F8F04F0BA
:102670006BF8012006B0BDE8F081059818B904F0A8
:1026800063F80020F6E7B8F1000F04D101A801F0CB
:1026900094FB4FF0010804F057F800F0EAFD04F055
:1026A0002CF894F94400401C10B9002084F8440030
:1026B00094F94500401C10B9002084F8450004F04E
:1026C00043F805A901A801F07FFBF0B92046FFF708
:1026D00005FDA0B104F12400059901F042FA20465D
:1026E000FFF716FB00F024FD0028A3D14FF0805027
:1026F000D7490860BFF34F8FBFF36F8F9AE720462B
:10270000FFF706FB00F014FD94E72046FFF700FBFF
:1027100000F00EFD2046FFF7E1FC00288AD00020E3
:10272000A8E72DE9F74382B005460E464FF00008B2
:102730002C4654B900BF502080F31188BFF34F8F4F
:10274000BFF36F8F00BF00BFFEE70EB9206C08B962
:10275000012000E0002050B900BF502080F3118814
:10276000BFF34F8FBFF36F8F00BF00BFFEE701F0D5
:1027700090FB08B9049808B9012000E0002050B986
:1027800000BF502080F31188BFF34F8FBFF36F8FCE
:1027900000BF00BFFEE700BF03F0AFFFD4F83890E2
:1027A000B9F1000F1ED0E76831462046FFF7F2FE70
:1027B000E760606A08B9012000E0002060B904F118
:1027C000240001F038FA38B14FF08050A049086079
:1027D000BFF34F8FBFF36F8F03F0B6FF012005B03B
:1027E000BDE8F083049818B903F0AEFF0020F6E7C7
:1027F000B8F1000F04D1684601F0DFFA4FF001088C
:1028000003F0A2FF00F035FD03F077FF94F94400D8
:10281000401C10B9002084F8440094F94500401C85
:1028200010B9002084F8450003F08EFF04A9684623
:1028300001F0CAFAF0B92046FFF750FCA0B104F14C
:102840002400049901F08DF92046FFF761FA00F0A9
:102850006FFC0028A0D14FF080507D490860BFF385
:102860004F8FBFF36F8F97E72046FFF751FA00F0C5
:102870005FFC91E72046FFF74BFA00F059FC204639
:10288000FFF72CFC002887D00020A8E72DE9F05F97
:10289000064689461746344654B900BF502080F397
:1028A0001188BFF34F8FBFF36F8F00BF00BFFEE7EC
:1028B000B9F1000F01D1206C08B9012000E000201F
:1028C00050B900BF502080F31188BFF34F8FBFF382
:1028D0006F8F00BF00BFFEE703F06AFF00BF50210B
:1028E000EFF3118081F31188BFF34F8FBFF36F8F28
:1028F00000BF0546D4F838A0BAF1000F22D094F9F1
:1029000044B049462046FFF745FEAAF10100A06306
:102910000BF1010070B9206908B9012000E0002026
:1029200068B904F1100001F086F940B13FB101200F
:10293000386004E00BF1010040B284F844004FF02D
:10294000010801E04FF0000800BF85F3118800BFC7
:102950004046BDE8F09F2DE9F047064688463446DC
:1029600054B900BF502080F31188BFF34F8FBFF3DD
:102970006F8F00BF00BFFEE7B8F1000F01D1206CE0
:1029800008B9012000E0002050B900BF502080F3BA
:102990001188BFF34F8FBFF36F8F00BF00BFFEE7FB
:1029A000206C08B1012000E0002050B900BF502089
:1029B00080F31188BFF34F8FBFF36F8F00BF00BF4D
:1029C000FEE703F0F5FE00BF5021EFF3118081F325
:1029D0001188BFF34F8FBFF36F8F00BF0546A06B09
:1029E00048B1D4F80C9041462046FFF7D3FDC4F817
:1029F0000C90012700E0002700BF85F3118800BF7D
:102A00003846BDE8F08770B5044654B900BF502081
:102A100080F31188BFF34F8FBFF36F8F00BF00BFEC
:102A2000FEE703F06AFEA56B03F08EFE284670BD3C
:102A300070B5044625466DB900BF502080F311885B
:102A4000BFF34F8FBFF36F8F00BF00BFFEE70000E3
:102A500004ED00E003F051FED5E90E10461A03F034
:102A600073FE304670BD10B501460A4652B900BF2C
:102A7000502383F31188BFF34F8FBFF36F8F00BFD5
:102A800000BFFEE7906B10BD014600200EE0564AE5
:102A900002EBC00252688A4207D10022524B43F82F
:102AA000302003EBC0035A6002E0401C0828EED33C
:102AB00000BF704770B50446254655B900BF502089
:102AC00080F31188BFF34F8FBFF36F8F00BF00BF3C
:102AD000FEE72846FFF7D8FF95F8460010B92846CC
:102AE00003F0B5FC70BD0146886C70478164704787
:102AF000014691F84C00704710B501460A4652B99C
:102B000000BF502383F31188BFF34F8FBFF36F8F44
:102B100000BF00BFFEE7936B0BB9012000E000206F
:102B200010BD10B501460A4652B900BF502383F3C9
:102B30001188BFF34F8FBFF36F8F00BF00BFFEE759
:102B4000936BD46BA34201D1012000E0002010BDA3
:102B5000024600200BE0244B53F8303033B9224BAF
:102B600043F8301003EBC0035A6002E0401C082811
:102B7000F1D300BF70470246002000210AE01A4B43
:102B800003EBC1035B68934203D1174B53F8310049
:102B900002E0491C0829F2D300BF70472DE9F0413B
:102BA00005460E4617462C4603F0A7FD94F944004F
:102BB000401C10B9002084F8440094F94500401CE2
:102BC00010B9002084F8450003F0BEFDA06B28B9C1
:102BD0003A46314604F1240001F00FF82046FFF791
:102BE00097F8BDE8F08100009000002010B50024A7
:102BF00007E004EB8401FE4A02EB8100FEF740FF90
:102C0000641C382CF5D3FB48FEF73AFFFA48FEF770
:102C100037FFFA48FEF734FFF948FEF731FFF9486D
:102C2000FEF72EFFF348F8490860F348F7490860BB
:102C300010BD10B5044603F060FDF5480068401C67
:102C4000F3490860F348006840B9F2480460084658
:102C5000006801280DD1FFF7C9FF0AE0EE480068BF
:102C600038B9EC480068C06AE16A884201D8E9488E
:102C70000460EA480068401CE849086008460068AB
:102C80006064E749E06A0968884202D9E449E06A79
:102C90000860E16A01EB8101D54A02EB8100211D48
:102CA000FEF7FEFE03F050FDDB48006868B1D9482E
:102CB0000068C06AE16A884207D24FF08050D94963
:102CC0000860BFF34F8FBFF36F8F10BD2DE9F05F2A
:102CD00082460E4690469B460A9F0C9C4FEA88010E
:102CE000A522206B03F0EFFDA8F10100216B01EBA1
:102CF000800929F0070909F0070008B9012000E060
:102D0000002050B900BF502080F31188BFF34F8FCF
:102D1000BFF36F8F00BF00BFFEE786B1002507E05D
:102D2000715D04F134004155705D00B902E06D1C25
:102D3000102DF5D300BF00214320015502E00020F3
:102D400084F83400382F00D33727E762E764002087
:102D50002065201DFEF7A1FE04F11800FEF79DFE80
:102D60002461C7F13800A06164620020606584F8C6
:102D700058005A465146484603F0E0FB20600B9845
:102D800008B10B980460BDE8F09F2DE9F04F85B0C5
:102D90000746884691469A46DDE90EB6109C0EB16C
:102DA000012000E0002050B900BF502080F31188BE
:102DB000BFF34F8FBFF36F8F00BF00BFFEE70CB1B3
:102DC000012000E0002050B900BF502080F311889E
:102DD000BFF34F8FBFF36F8F00BF00BFFEE75C20D4
:102DE000039003985C2801D1012000E0002050B935
:102DF00000BF502080F31188BFF34F8FBFF36F8F58
:102E000000BF00BFFEE700BFB4B1AEB125462C46FF
:102E10002E63022085F85900002004A953464A4633
:102E2000CDE900B1CDE9025041463846FFF74EFFEB
:102E30002846FFF7FEFE01E000200490049805B04C
:102E4000BDE8F08F2DE9FF4F85B0804689461746D3
:102E5000DDE912ABB80003F066FA064656B15C2015
:102E600003F061FA04460CB1266304E0304603F037
:102E7000EEFA00E000248CB1002084F85900CDE97E
:102E800000ABCDE902403A4649464046089BFFF771
:102E90001DFF2046FFF7CDFE012501E04FF0FF3575
:102EA000284609B0BDE8F08F57490968096809B993
:102EB000012100E0002121B14FF0FF315A4A116099
:102EC00006E051490968C968C868574A41681160F5
:102ED000704710B5044694F8590030B9206B03F0E0
:102EE000B6FA204603F0B3FA1AE094F85900012824
:102EF00003D1204603F0ABFA12E094F859000228FF
:102F000001D1012000E0002050B900BF502080F323
:102F10001188BFF34F8FBFF36F8F00BF00BFFEE775
:102F200010BD70B5054603F0E8FB15B939480068D7
:102F300000E028460446201DFEF7D8FDA06A18B11F
:102F400004F11800FEF7D2FD34480068401C3349F4
:102F5000086030480068844209D1211D2848FEF7E6
:102F60009FFD32480068401C3049086009E028484D
:102F70000068401E264908602046FFF7AAFFFFF7B9
:102F800093FF03F0E1FB24480068E8B121480068A2
:102F9000844219D12648006808B9012000E00020C9
:102FA00050B900BF502080F31188BFF34F8FBFF39B
:102FB0006F8F00BF00BFFEE74FF0805019490860D7
:102FC000BFF34F8FBFF36F8F70BD2DE9F0414FF00E
:102FD00000081748006800287DD116480068451C85
:102FE0001448056045BB08480068006838BB24E009
:102FF000D0000020300500204405002058050020A6
:103000006C050020800500201C000020200000200E
:103010002800002018000020340000204400002078
:103020003000002004ED00E04800002024000020D3
:10303000500000202C0000201EE0012000E00020B5
:1030400050B900BF502080F31188BFF34F8FBFF3FA
:103050006F8F00BF00BFFEE7F7480768F7480068BA
:10306000F5490860F5480760F5480068401CF449D8
:103070000860FFF719FF00BFF248006885423DD3A2
:1030800000BFED480068006808B9012000E000209A
:1030900020B14FF0FF30EB4908602EE0E6480068B1
:1030A000C068C4686668B54202D2E648066024E09B
:1030B000201DFEF71BFDA06A18B104F11800FEF7F1
:1030C00015FDE149E06A0968884202D9DE49E06AF3
:1030D0000860E16A00E01EE001EB8101DB4A02EBDF
:1030E0008100211DFEF7DCFCD949E06A0968C96A44
:1030F0008842C6D34FF00108C3E700BFD448006838
:10310000C06A00EB8000D14951F82000012801D9A4
:103110004FF0010804E0CF480068401CCD4908602A
:10312000CD48006808B14FF001084046BDE8F08185
:1031300070B500240026C948006850B900BF50206F
:1031400080F31188BFF34F8FBFF36F8F00BF00BFB5
:10315000FEE703F0D2FAC1480068401EBF4908608C
:103160000846006800284ED1BD48006800284AD0B3
:1031700023E0BC48C068C46804F11800FEF7B6FC40
:10318000201DFEF7B3FCB049E06A0968884202D905
:10319000AD49E06A0860E16A01EB8101AB4A02EBEC
:1031A0008100211DFEF77CFCA949E06A0968C96A13
:1031B000884202D30120A8490860AA48006808B9DB
:1031C000012000E000200028D3D00CB1FFF76CFEF6
:1031D000A048056865B100BFFFF7F7FE10B10120F8
:1031E0009D4908606D1E002DF6D1002099490860A8
:1031F0009948006838B1012630079B490860BFF341
:103200004F8FBFF36F8F03F09FFA304670BD2DE9EB
:10321000F04105460E46954807688D480068001D38
:10322000FEF764FC681C38B936B189480168091D8D
:103230008F48FEF735FC1AE07C1985480068446029
:10324000BC4207D282480168091D7C480068FEF72D
:1032500033FC0CE07E480168091D77480068FEF7E2
:103260002BFC78480068844201D276480460BDE8AF
:10327000F0817A480068401C7849086070472DE961
:10328000F04704460F464FF0000954B900BF5020E4
:1032900080F31188BFF34F8FBFF36F8F00BF00BF64
:1032A000FEE70FB1012000E0002050B900BF502020
:1032B00080F31188BFF34F8FBFF36F8F00BF00BF44
:1032C000FEE76648006808B9012000E0002050B918
:1032D00000BF502080F31188BFF34F8FBFF36F8F73
:1032E00000BF00BFFEE7FFF7C4FF60480668206824
:1032F000C5192068B04207D92068A8420BD9B54249
:1033000009D94FF0010906E02068A84201D8B5426A
:1033100001D94FF001092560B9F1000F03D0A81BB6
:103320000021FFF774FFFFF703FF8046B8F1000F9D
:1033300007D14FF080504C490860BFF34F8FBFF367
:103340006F8FBDE8F08770B504460025D4B14348BF
:10335000006808B9012000E0002050B900BF5020EB
:1033600080F31188BFF34F8FBFF36F8F00BF00BF93
:10337000FEE7FFF77EFF00212046FFF748FFFFF73B
:10338000D7FE05463DB94FF0805037490860BFF37E
:103390004F8FBFF36F8F70BD2DE9F04707463E4654
:1033A00056B900BF502080F31188BFF34F8FBFF391
:1033B0006F8F00BF00BFFEE725480068864201D13D
:1033C000002426E003F099F975691B48D0F80080C5
:1033D0001A48D0F8009003F0B7F9454501D04D45A3
:1033E00001D1022415E0224885420BD1B06A38B9D8
:1033F00096F85800012801D102240AE0032408E0CD
:10340000022406E01B48854200D00DB9042400E0E8
:1034100001242046BDE8F08770B5044603F06DF93D
:1034200014B90B48006800E020460646F56A03F030
:103430008BF9284670BD00001C00002020000020F1
:10344000400000204800002030000020D000002074
:1034500018000020380000203C0000205000002010
:10346000280000205805002004ED00E02C0000207A
:10347000800500206C0500202DE9F041054603F091
:1034800097F900BF5021EFF3118081F31188BFF34A
:103490004F8FBFF36F8F00BF044615B9FE48006819
:1034A00000E028460746FE6A00BF84F3118800BF8B
:1034B0003046BDE8F0812DE9F04707460D464FF054
:1034C0000009382D01D2012000E0002050B900BFD2
:1034D000502080F31188BFF34F8FBFF36F8F00BF71
:1034E00000BFFEE7382D00D3372503F006F917B9E2
:1034F000E948006800E038460446E66CAE424ED02B
:10350000B5420BD9E448006884420DD0E248006817
:10351000C06AA84208D84FF0010905E0DE480068FB
:10352000844201D14FF00109D4F82C80E16AE06CAB
:10353000884200D1E562E564A06900F0004010B95E
:10354000C5F13800A06108EB8801D44A02EB810183
:103550006069884201D1012000E0002098B1201D5F
:10356000FEF7C4FACE49E06A0968884202D9CC491C
:10357000E06A0860E16A01EB8101C84A02EB810060
:10358000211DFEF78DFAB9F1000F07D04FF08050E2
:10359000C4490860BFF34F8FBFF36F8F00BF03F0C4
:1035A000D3F8BDE8F087C048006818B10120BF49D2
:1035B000086034E00020BD490860B94801680CE0AB
:1035C00051B900BF502080F31188BFF34F8FBFF374
:1035D0006F8F00BF00BFFEE7491E01EB8100AF4ABD
:1035E00052F8200008B9012000E000200028E7D1AF
:1035F00001EB8102A94B03EB8200426852684260F2
:1036000000F108024368934202D142685268426066
:103610004268D268A04B1A60A148016000BF7047A1
:1036200070B5054603F069F815B99B48006800E0DD
:1036300028460446201DFEF759FAA06A18B104F185
:103640001800FEF753FA211D9948FEF729FA94F85D
:103650005800012802D1002084F8580003F074F8C3
:103660009448006828B103F048F8FFF71DFC03F008
:103670006BF889480068844229D18E480068D0B12F
:103680008948006808B9012000E0002050B900BF57
:10369000502080F31188BFF34F8FBFF36F8F00BFAF
:1036A00000BFFEE74FF080507E490860BFF34F8FA8
:1036B000BFF36F8F0BE07E4800687F49096888423E
:1036C00003D100207449086001E0FFF76CFF70BD72
:1036D00010B502460020114652B900BF502383F3B3
:1036E0001188BFF34F8FBFF36F8F00BF00BFFEE79E
:1036F0006F4C4B69A34201D1012300E0002373B159
:103700006E4C8B6AA34201D1012300E0002333B940
:103710008B6A0BB9012300E0002303B1012010BD27
:1037200070B505462C4655B900BF502080F311886E
:10373000BFF34F8FBFF36F8F00BF00BFFEE7564848
:10374000006884422AD04CB302F0D7FF2046FFF72E
:10375000BFFF08B3201DFEF7C9F95149E06A0968A7
:10376000884202D94E49E06A0860E16A01EB8101B2
:103770004A4A02EB8100211DFEF792F94649E06AB0
:103780000968C96A884207D34FF0805045490860EC
:10379000BFF34F8FBFF36F8F02F0D6FF70BD2DE9DF
:1037A000F04106460027344656B900BF502080F34A
:1037B0001188BFF34F8FBFF36F8F00BF00BFFEE7CD
:1037C00002F0F6FF00BF5021EFF3118081F3118862
:1037D000BFF34F8FBFF36F8F00BF05462046FFF743
:1037E00077FF18B330480068D8B92B49E06A0968F8
:1037F000C96A884200D30127201DFEF777F92849BE
:10380000E06A0968884202D92549E06A0860E16AED
:1038100001EB8101214A02EB8100211DFEF740F9F5
:1038200004E004F118012548FEF73AF900BF85F3DA
:10383000118800BF3846BDE8F08110B516E002F0EF
:103840005CFF1F48C068C468201DFEF74FF91A4886
:103850000068401E184908601A480068401E19494F
:10386000086002F071FF2046FFF733FB154800683F
:103870000028E4D110BD00BFFFF7DFFF0748006854
:103880000128F9D94FF0805006490860BFF34F8FE7
:10389000BFF36F8FF0E7000018000020D000002079
:1038A0003000002004ED00E0500000203C0000202B
:1038B000800500203400002028000020580500204A
:1038C0006C0500202400002010B586B00020059073
:1038D000049003AA04A905A802F0A4FC0022DDE9D3
:1038E00004101346CDE900210290F6A1F748039A8F
:1038F000FFF74BFAF64908600846006808B1012452
:1039000000E00024012C02D101F06DF80446012CE6
:1039100015D100BF502080F31188BFF34F8FBFF344
:103920006F8F00BF4FF0FF30EA4908600120EA497D
:1039300008600020E949086002F025FE10E0601CE4
:1039400008B1012000E0002050B900BF502080F3F2
:103950001188BFF34F8FBFF36F8F00BF00BFFEE72B
:1039600006B010BD10B500BF502080F31188BFF322
:103970004F8FBFF36F8F00BF0020D749086002F060
:10398000A7FE10BDD5490868704770B502F010FF5A
:103990000025D2480468204670BDD14800687047B1
:1039A000014611B9CF48006800E00846024652B906
:1039B00000BF502080F31188BFF34F8FBFF36F8F8C
:1039C00000BF00BFFEE702F134007047024600214D
:1039D00001E0521C491C1078A528FAD0890888B249
:1039E00070472DE9F04107460C4690461E4617B930
:1039F000BC48006800E038460546256005F1340003
:103A00006060E86A2061286BE061686CA060E86C27
:103A100060610020A061052E12D0B2480068854286
:103A200002D1002020730FE02673032E0CD1FFF784
:103A300020FCA86A08B102202073FFF779FB03E09D
:103A40002846FFF7A9FC2073B8F1000F04D0286BBB
:103A5000FFF7BCFF208401E000202084BDE8F08156
:103A60002DE9F04707460C4690460026206848B3EB
:103A7000204641684968416000F1080142688A4275
:103A800002D14168496841604168D1F80C9000BF9B
:103A9000204641684968416000F1080142688A4255
:103AA00002D14168496841604168CD6806EBC600B3
:103AB00007EB8001434601222846FFF792FF761C60
:103AC0004D45E5D13046BDE8F0872DE9F04105468A
:103AD0008846164600243827FFF7CBFB804800684D
:103AE000804539D300BF7F1E07EB87027E4B03EB77
:103AF000820104EBC40205EB82000122FFF7B0FF54
:103B00000444002FEFD104EBC40105EB8100022235
:103B100076490968FFF7A4FF044404EBC40105EBF0
:103B20008100022272490968FFF79AFF044404EBFE
:103B3000C40105EB810004226E49FFF791FF0444A4
:103B400004EBC40105EB810003226B49FFF788FFFA
:103B500004440EB100203060FFF7EAFA2046BDE8C9
:103B6000F08170B504460D4654B900BF502080F373
:103B70001188BFF34F8FBFF36F8F00BF00BFFEE709
:103B80005848016818312046FDF796FF0121284664
:103B9000FFF73DFB70BD70B504460D46164654B99F
:103BA00000BF502080F31188BFF34F8FBFF36F8F9A
:103BB00000BF00BFFEE75148006808B1012000E0E7
:103BC000002050B900BF502080F31188BFF34F8F01
:103BD000BFF36F8F00BF00BFFEE745F000404149D3
:103BE000096888613F48016818312046FDF758FF91
:103BF00001213046FFF70BFB70BD70B505460E4640
:103C0000144655B900BF502080F31188BFF34F8F81
:103C1000BFF36F8F00BF00BFFEE732480168183165
:103C20002846FDF73DFF0CB14FF0FF3621463046E8
:103C3000FFF7EDFA70BD70B50646F068C46854B978
:103C400000BF502080F31188BFF34F8FBFF36F8FF9
:103C500000BF00BFFEE704F11800FDF747FF27484B
:103C60000068A0B9201DFDF741FF2549E06A0968F9
:103C7000884202D92249E06A0860E16A01EB8101C9
:103C8000194A02EB8100211DFDF70AFF04E004F14F
:103C900018011C48FDF704FF1249E06A0968C96A67
:103CA000884204D9012501201749086000E0002559
:103CB000284670BD70B505460E461048006828B30A
:103CC000012024E049444C450000000077380008FA
:103CD0004C00002048000020340000202C00002070
:103CE0002800002018000020D00000201C00002028
:103CF000200000206C0500208005002050000020DE
:103D000030000020580500203C000020002050B961
:103D100000BF502080F31188BFF34F8FBFF36F8F28
:103D200000BF00BFFEE746F000402860EC6854B9D1
:103D300000BF502080F31188BFF34F8FBFF36F8F08
:103D400000BF00BFFEE72846FDF7D0FE201DFDF7AF
:103D5000CDFEF949E06A0968884202D9F649E06A6D
:103D60000860E16A01EB8101F44A02EB8100211D48
:103D7000FDF796FEF249E06A0968C96A884202D9ED
:103D80000120F049086070BD10B5044654B900BF69
:103D9000502080F31188BFF34F8FBFF36F8F00BFA8
:103DA00000BFFEE702F0A9FCE74800682060E74892
:103DB0000068606002F0C8FC10BDE349096801605A
:103DC000E24909684160704770B505460C4655B92F
:103DD00000BF502080F31188BFF34F8FBFF36F8F68
:103DE00000BF00BFFEE754B900BF502080F3118828
:103DF000BFF34F8FBFF36F8F00BF00BFFEE702F02E
:103E00007CFCD24802686868131A2068401C08B914
:103E1000002617E0CC4928680968884204D0686801
:103E2000904201D801260DE02068984207D9206809
:103E3000C01A20602846FFF7C0FF002602E00020DD
:103E40002060012602F080FC304670BD0120BD4993
:103E500008607047014611B10A46906C00E00020EE
:103E6000704708B10246916470472DE9F04104465D
:103E700014B9B348006800E0204607463D6B284669
:103E8000FFF7A4FD06463046BDE8F081AC4908685E
:103E90007047AF49096809B9012005E0AD490968D3
:103EA00009B9022000E00020704770B505462C4695
:103EB0000026002D42D0A249E06A0968C96A8842FA
:103EC00035D2A06900F0004028B99D480068C06A5A
:103ED000C0F13800A061E16A01EB8101974A02EB71
:103EE00081016069884201D1012000E00020C0B159
:103EF000201DFDF7FBFD92480068C06AE0628E4914
:103F0000E06A0968884202D98B49E06A0860E16A80
:103F100001EB8101894A02EB8100211DFDF7C0FD03
:103F200003E087480068C06AE062012606E0844931
:103F3000E06C0968C96A884200D20126304670BD2B
:103F400070B505462C460026002D43D07C480068FD
:103F5000844201D1012000E0002050B900BF502070
:103F600080F31188BFF34F8FBFF36F8F00BF00BF87
:103F7000FEE7206D50B900BF502080F31188BFF3D9
:103F80004F8FBFF36F8F00BF00BFFEE7206D401E55
:103F90002065E16CE06A88421CD0206DD0B9201DFC
:103FA000FDF7A4FDE06CE062E06AC0F13800A061BA
:103FB0006149E06A0968884202D95F49E06A08609D
:103FC000E16A01EB81015D4A02EB8100211DFDF7F1
:103FD00067FD0126304670BD2DE9F04706460F46C5
:103FE00034464FF00109002E55D0206D50B900BF66
:103FF000502080F31188BFF34F8FBFF36F8F00BF46
:1040000000BFFEE7E06CB84201D23D4600E0E56C3F
:10401000E06AA8423FD0206D01283CD148480068A2
:10402000844201D0012000E0002050B900BF5020A0
:1040300080F31188BFF34F8FBFF36F8F00BF00BFB6
:10404000FEE7D4F82C80E562A06900F0004010B9CA
:10405000C5F13800A06108EB8801384A02EB810104
:104060006069884201D1012000E0002098B1201D44
:10407000FDF73CFD3049E06A0968884202D92E49C3
:10408000E06A0860E16A01EB81012C4A02EB8100E1
:10409000211DFDF705FDBDE8F087294909688869FC
:1040A00027490968C96AC1F13801254A1268916136
:1040B00070472348006830B12149096801F1500078
:1040C000096D491C01601E480068704770B50646BE
:1040D0000D4602F012FB1A480068406D88B90120B5
:1040E0001749096881F858005DB101212846FFF79A
:1040F0008EF84FF0805018490860BFF34F8FBFF320
:104100006F8F02F021FB02F0F8FA0D480068446D51
:104110004CB126B100200A490968486503E0601ED9
:1041200007490968486500200549096881F8580071
:1041300002F00AFB204670BD30000020D0000020B5
:10414000180000203C000020400000202C0000202F
:10415000340000205000002004ED00E02DE9F04183
:104160000746884614461D4602F0C7FAF84800681C
:1041700090F85800022818D0F549096801F1540058
:10418000496DB94301600120F149096881F858007F
:104190005DB101212846FFF73AF84FF08050ED4914
:1041A0000860BFF34F8FBFF36F8F02F0CDFA02F0BC
:1041B000A4FA1CB1E6480068406D2060E44800683D
:1041C00090F85800022801D0002608E0E04909686C
:1041D00001F15400496D21EA080101600126002027
:1041E000DB49096881F8580002F0AEFA3046BDE8B4
:1041F000F0812DE9F04706460D46174698464FF0E8
:10420000010A56B900BF502080F31188BFF34F8FC9
:10421000BFF36F8F00BF00BFFEE7344602F06DFAB8
:10422000B8F1000F02D0606DC8F8000094F8589003
:10423000022084F85800052F17D2DFE807F0150395
:10424000070B0D00606D2843606521E0606D401C28
:1042500060651DE065651BE0B9F1020F01D0656581
:1042600001E04FF0000A13E012E0606D401C08B955
:10427000012000E0002050B900BF502080F31188D9
:10428000BFF34F8FBFF36F8F00BF00BFFEE700BFCC
:1042900000BFB9F1010F32D1201DFDF727FCAE4957
:1042A000E06A0968884202D9AB49E06A0860E16ABD
:1042B00001EB8101A94A02EB8100211DFDF7F0FB12
:1042C000A06A08B9012000E0002050B900BF5020CA
:1042D00080F31188BFF34F8FBFF36F8F00BF00BF14
:1042E000FEE79B49E06A0968C96A884207D94FF02E
:1042F000805098490860BFF34F8FBFF36F8F02F073
:1043000023FA5046BDE8F0872DE9F84F07460E46E0
:1043100090469946DDF828B00120009057B900BFBB
:10432000502080F31188BFF34F8FBFF36F8F00BF12
:1043300000BFFEE702F03CFA3C4600BF5021EFF31D
:10434000118081F31188BFF34F8FBFF36F8F00BFD0
:104350000546B9F1000F02D0606DC9F8000094F86D
:1043600058A0022084F85800B8F1050F17D2DFE8F2
:1043700008F01503070B0D00606D3043606521E008
:10438000606D401C60651DE066651BE0BAF1020FC0
:1043900001D0666501E00020009013E012E0606D3E
:1043A000401C08B9012000E0002050B900BF502097
:1043B00080F31188BFF34F8FBFF36F8F00BF00BF33
:1043C000FEE700BF00BFBAF1010F3CD1A06A08B9F7
:1043D000012000E0002050B900BF502080F3118878
:1043E000BFF34F8FBFF36F8F00BF00BFFEE75C4886
:1043F0000068A0B9201DFDF779FB5749E06A0968FC
:10440000884202D95449E06A0860E16A01EB8101FF
:10441000524A02EB8100211DFDF742FB04E004F14A
:1044200018015048FDF73CFB4949E06A0968C96A30
:10443000884208D9BBF1000F02D00120CBF8000060
:1044400001204949086000BF85F3118800BF00982A
:10445000BDE8F88F2DE9F04105460F4655B900BF7C
:10446000502080F31188BFF34F8FBFF36F8F00BFD1
:1044700000BFFEE702F09CF92C4600BF5021EFF38D
:10448000118081F31188BFF34F8FBFF36F8F00BF8F
:10449000064694F85880022084F85800606D401C4D
:1044A0006065B8F1010F39D1A06A08B9012000E0B8
:1044B000002050B900BF502080F31188BFF34F8F08
:1044C000BFF36F8F00BF00BFFEE725480068A0B9AB
:1044D000201DFDF70BFB2049E06A0968884202D9DC
:1044E0001D49E06A0860E16A01EB81011B4A02EBA9
:1044F0008100211DFDF7D4FA04E004F118011948E8
:10450000FDF7CEFA1249E06A0968C96A884205D9FE
:104510000FB10120386001201349086000BF86F305
:10452000118800BFBDE8F08170B5054615B908488F
:10453000006800E02846064602F0DFF896F85800CA
:10454000022813D1002086F8580001240FE0000053
:104550001800002004ED00E030000020D000002012
:1045600050000020580500203C000020002402F0EC
:10457000EBF8204670BD00002DE9F04104460D46E1
:1045800016461F464FF0000865602461B5420CD8FE
:10459000F01BA169884202D34FF0010811E0211DF0
:1045A000FE480068FDF788FA0BE0BE4204D2BD4227
:1045B00002D34FF0010804E0211DF9480068FDF71F
:1045C0007BFA4046BDE8F0812DE9FF4704460D46E1
:1045D00016461F46DDF830804FF0000954B900BF81
:1045E000502080F31188BFF34F8FBFF36F8F00BF50
:1045F00000BFFEE7EB48006810B3009501960294F7
:10460000062D15DAFFF745FC022808D100234246A3
:104610006946E4480068FDF708FC814610E0002385
:104620001A466946DF480068FDF7FFFB814607E050
:1046300000233A466946DB480068FDF7BFFE814625
:10464000484604B0BDE8F0872DE9F84334E0D4488B
:104650000068C0680568D2480068C068C468201D4A
:10466000FDF744FA2046216A884794F8280000F0B4
:10467000040008B3A0694619AE4207D966602461F8
:10468000211DC7480068FDF717FA15E00020034612
:104690002A46014600902046FFF796FF074657B985
:1046A00000BF502080F31188BFF34F8FBFF36F8F8F
:1046B00000BF00BFFEE700BFB9480068006808B946
:1046C000012000E000200028C1D0B548D0F80080CB
:1046D000B2480068B2490860B048C0F80080BDE840
:1046E000F88370B50446FFF74DF90546AE480068FB
:1046F000854204D2FFF7A8FF0120206001E00020DE
:104700002060A9480560284670BDF0B587B0A0E0DC
:104710000398002811DA04AE56B900BF502080F388
:104720001188BFF34F8FBFF36F8F00BF00BFFEE74D
:10473000D6E90020B168904700BF03980028E6DB67
:10474000059C606908B9012000E0002010B9201D17
:10475000FDF7CCF902A8FFF7C4FF054603980A2825
:1047600075D2DFE800F009050739416306083A42CF
:1047700000BF00BF00BF00BF94F8280040F0010058
:1047800084F828000498A269811803462A46204626
:10479000FFF7F2FEF8B12046216A884794F8280016
:1047A00000F00400B8B1002000900498A1694218FC
:1047B000002319462046FFF707FF074657B900BFF9
:1047C000502080F31188BFF34F8FBFF36F8F00BF6E
:1047D00000BFFEE700BF3BE000BF94F8280020F0D8
:1047E000010084F8280033E000BF94F8280040F06E
:1047F000010084F828000498A061A06908B1012094
:1048000000E0002050B900BF502080F31188BFF3B2
:104810004F8FBFF36F8F00BF00BFFEE7A069411944
:104820002B462A462046FFF7A7FE11E094F8280001
:1048300000F0020018B9204601F009FE05E094F8E6
:10484000280020F0010084F8280001E0FFE700BF05
:1048500000BF002203A953480068FDF7B0FE0028FE
:104860007FF456AF07B0F0BDF8B505460F464C488B
:104870000068C068C468201DFDF738F994F8280066
:1048800000F00400E8B1A06941192B463A462046E1
:10489000FFF772FED8B1002003462A460146009079
:1048A0002046FFF791FE064656B900BF502080F320
:1048B0001188BFF34F8FBFF36F8F00BF00BFFEE7BC
:1048C00005E094F8280020F0010084F82800204634
:1048D000216A8847F8BDF8B505460C46FEF7C9FCC5
:1048E0006846FFF7FEFE0646009820BB44B9B54275
:1048F00006D8FEF71DFC31462846FFF7B5FF1CE041
:104900003CB126480068006808B9012000E000209A
:104910000446A91B224623480068FEF73FF9FEF72C
:1049200007FC50B94FF0805020490860BFF34F8F0B
:10493000BFF36F8F01E0FEF7FBFBF8BD0146184A9D
:10494000126812680AB9012200E000220A600A68AF
:1049500022B9134A1268D268106800E0002070473C
:1049600008B500BF6846FFF7E9FF044620460099F6
:10497000FFF7B1FFFFF7C9FEF4E708B501F0BDFE90
:104980000848006860BB0A48FDF77AF80948FDF757
:1049900077F807480249086006480DE058000020F3
:1049A000540000205C0000206400002004ED00E0C2
:1049B00094050020A8050020DF4908600020DF4B97
:1049C000DF4A102100900A20FDF702F9DD49086056
:1049D0000846006820B1DCA1DA480068FEF7B8F8A4
:1049E00001F0B2FE08BD10B586B00024FFF7C5FF88
:1049F000D4480068D0B100200590049003AA04A90F
:104A000005A801F016FC0222DDE904100023CDE91F
:104A100000210290CEA1D048039AFEF7B6F9CF4903
:104A200008600846006800B1012400BF54B900BF07
:104A3000502080F31188BFF34F8FBFF36F8F00BFFB
:104A400000BFFEE7204606B010BD2DE9F047064640
:104A50000D4617469846DDE908940DB1012000E0A7
:104A6000002050B900BF502080F31188BFF34F8F52
:104A7000BFF36F8F00BF00BFFEE78CB1FFF77DFF74
:104A80002660A561C4F81C80C4F82090201DFDF7A5
:104A900004F82FB194F8280040F0040084F82800AE
:104AA000BDE8F0872DE9FC4705460E4617469846B7
:104AB000DDF828902C2001F036FC044654B100208B
:104AC00084F8280043463A4631462846CDE900940A
:104AD000FFF7BBFF2046BDE8FC872DE9FC470646F3
:104AE0000F4690469946DDE90AA52C2001900198D1
:104AF0002C2801D1012000E0002050B900BF502037
:104B000080F31188BFF34F8FBFF36F8F00BF00BFDB
:104B1000FEE700BF55B900BF502080F31188BFF3F6
:104B20004F8FBFF36F8F00BF00BFFEE72C4654B11D
:104B3000022084F828004B46424639463046CDE9EB
:104B400000A4FFF782FF2046BDE8FC878348006889
:104B500008B1012000E0002050B900BF502080F3D0
:104B60001188BFF34F8FBFF36F8F00BF00BFFEE709
:104B70007A480068704701460A4651B900BF502084
:104B800080F31188BFF34F8FBFF36F8F00BF00BF5B
:104B9000FEE79069704770B505460E462C4655B93C
:104BA00000BF502080F31188BFF34F8FBFF36F8F8A
:104BB00000BF00BFFEE701F0A0FD36B194F8280069
:104BC00040F0040084F8280005E094F8280020F064
:104BD000040084F8280001F0B7FD70BD10B501464F
:104BE0000A4651B900BF502383F31188BFF34F8F9A
:104BF000BFF36F8F00BF00BFFEE7506810BD0146D6
:104C00000A4651B900BF502080F31188BFF34F8F7F
:104C1000BFF36F8F00BF00BFFEE71068704770B52D
:104C20000446264654B900BF502080F31188BFF3D4
:104C30004F8FBFF36F8F00BF00BFFEE701F05DFD38
:104C400096F8280000F0010008B9002500E00125D1
:104C500001F07AFD284670BD70B50446254654B96A
:104C600000BF502080F31188BFF34F8FBFF36F8FC9
:104C700000BF00BFFEE701F040FDEE6901F064FDFA
:104C8000304670BD70B504460D46264654B900BF87
:104C9000502080F31188BFF34F8FBFF36F8F00BF99
:104CA00000BFFEE701F029FDF56101F04DFD70BD8B
:104CB0002DE9FF4104460D4616461F466FF00100E0
:104CC000009001940295039600233A4669461D48D8
:104CD0000068FDF773FB8046404604B0BDE8F081F4
:104CE0002DE9FF4104460D4616461F46154800684B
:104CF00050B900BF502080F31188BFF34F8FBFF32E
:104D00006F8F00BF00BFFEE74FF0FF3000900194AF
:104D10000295039600233A4669460A480068FDF763
:104D200084F88046404604B0BDE8F0810146486AF8
:104D3000704741627047000058000020BC05002009
:104D40000C0600205C000020546D72510000000031
:104D5000546D7220537663006149000860000020A2
:104D600010B501F06EFA48B901F06EFA10B901F011
:104D70006EFA30B1F7480068022802D16FF00504DE
:104D800009E0F448006820B90120F24908600024D5
:104D900001E04FF0FF34204610BD70B504460D46CB
:104DA000164614B1EC482060606045B13EB1112E4A
:104DB00000D911263246E9A1284601F072FD0020F3
:104DC00070BD10B5FFF765F828B1012806D002289C
:104DD00003D102240AE0032408E000BFDD48006894
:104DE000012801D1012400E0002400BF00BF2046BB
:104DF00010BD10B501F025FA48B901F025FA10B937
:104E000001F025FA30B1D3480068022802D16FF0D2
:104E100005040EE0CF480068012808D100BF00BF9C
:104E20000220CC490860FEF74FFD002401E04FF05E
:104E3000FF34204610BD10B501F003FA48B901F067
:104E400003FA10B901F003FA30B1C2480068022831
:104E500002D16FF0050412E0FFF71BF820B1012822
:104E600009D0022806D101E0012407E0FEF701FA8B
:104E7000002403E000BF4FF0FF3400BF00BF204616
:104E800010BD10B501F0DDF948B901F0DDF910B938
:104E900001F0DDF930B1AF480068022802D16FF0AF
:104EA000050418E0FEF7F5FF20B101280FD0022815
:104EB0000CD109E00124FEF73BF9012803D0FEF7ED
:104EC000E8FF00B9A41E05E0002403E000BF4FF096
:104ED000FF3400BF00BF204610BD10B5044601F0EE
:104EE000B0F948B901F0B0F910B901F0B0F930B13A
:104EF00098480068022802D16FF0050421E0FEF70F
:104F0000C8FF20B1012818D0022815D100E000BF49
:104F1000012C02D1FEF7ADF90DE014B14FF0FF34D2
:104F200009E0FEF705F9012805D0FEF7B2FF0228D7
:104F300001D04FF0FF3403E000BF4FF0FF3400BF5B
:104F400000BF204610BD10B501F07BF948B901F053
:104F50007BF910B901F07BF938B17E48006802286E
:104F600003D1FEF712FD044602E0FEF70BFD0446F6
:104F7000204610BD4FF47A70704770B501F064F9A7
:104F800010B901F064F908B1012000E000200646E4
:104F900072B6FEF7F7FC0446754800684FF47A7164
:104FA000B0FBF1F000FB04F506B962B6284670BD0F
:104FB0006F48006870472DE9FF47804689461446D0
:104FC0000020039001F03DF900285AD101F03CF98E
:104FD00010B901F03CF918B15E480068022850D0C1
:104FE000B8F1000F4DD0802618254FF0000A4FF081
:104FF000FF3744B3206808B1D4F800A0A06900B11D
:10500000A5692DB1382D03D8207900F0010018B121
:10501000002004B0BDE8F087606908B160698608C7
:10502000A06840B1E0685C2805D3206918B16069C8
:1050300008B1012708E0A06830B9E06820B920690C
:1050400010B9002700E00027012F0CD12169A068CA
:105050004B463246CDE90051029051464046FDF79D
:1050600094FE03900DE067B903A8B2B24B465146D7
:10507000CDE900504046FDF7E5FE012801D00020B3
:1050800003900398C5E770B505462E4601F0D9F8A0
:1050900050B901F0D9F810B901F0D9F818B12D487C
:1050A0000068022800D00EB9002403E03046FEF765
:1050B00077FC0446204670BD10B5FEF7E7FE0446B7
:1050C000204610BD70B505462E4601F0BAF850B91D
:1050D00001F0BAF810B901F0BAF818B11D4800682B
:1050E000022800D016B94FF0FF3417E03046FEF723
:1050F00053F906280DD2DFE800F0030507080A0D72
:1051000002240AE0012408E000BF032405E004248F
:1051100003E000BF4FF0FF3400BF00BF204670BD6A
:1051200070B505462E4601F08CF850B901F08CF8A8
:1051300010B901F08CF818B106480068022800D0B8
:105140000EB9002403E03046FEF78FFE04462046E9
:1051500070BD00006800002020EFF505467265650F
:1051600052544F53205631302E322E300000000062
:10517000140000202DE9F04106460D46374601F0A7
:1051800060F848B901F060F810B901F060F830B18A
:10519000F8480068022802D16FF005040CE01FB146
:1051A000012D01DB382D02DD6FF0030404E0002443
:1051B00029463846FEF77FF92046BDE8F08170B5F4
:1051C00005462E4601F03DF850B901F03DF810B902
:1051D00001F03DF818B1E7480068022800D016B980
:1051E0004FF0FF3403E03046FEF716F90446204640
:1051F00070BD10B501F025F848B901F025F810B9D7
:1052000001F025F830B1DB480068022802D16FF0C8
:10521000050408E000244FF08050D7490860BFF330
:105220004F8FBFF36F8F204610BD70B505462E46D9
:1052300001F007F848B901F007F810B901F007F8D4
:1052400030B1CC480068022802D16FF0050407E0B5
:1052500016B96FF0030403E000243046FEF7E0F9CE
:10526000204670BD70B505462E4600F0EAFF48B9ED
:1052700000F0EAFF10B900F0EAFF30B1BD48006865
:10528000022802D16FF0050407E016B96FF003049D
:1052900003E000243046FEF743FA204670BD0020AC
:1052A000FDF73FFE00BFFEE72DE9F0410646374619
:1052B00000F0C7FF48B900F0C7FF10B900F0C7FF02
:1052C00030B1AC480068022802D16FF0050410E04C
:1052D00017B96FF003040CE03846FEF75DF8054699
:1052E000042D04D000243846FDF71BFE01E06FF0CA
:1052F00002042046BDE8F08110B500F0A2FF48B9D5
:1053000000F0A2FF10B900F0A2FF28B19948006890
:10531000022801D1002402E0FEF73FFB04462046AC
:1053200010BD2DE9F0410746884600F08AFF68B9B4
:1053300000F08AFF10B900F08AFF18B18D480068AC
:10534000022803D017B1B8F1000F01D1002524E0E5
:10535000FDF78FFFFEF721FB054605EBC501880031
:1053600000F0E1FF06469EB1002229463046FEF7D6
:10537000ACFB0546002406E004EBC40056F8200010
:1053800047F82400641CAC4201D24445F4D32546BE
:10539000FDF7CEFE304601F05AF82846BDE8F08110
:1053A000FEB504460D46264616B105F0004018B17C
:1053B0006FF00300029038E04FF0FF30029000F0F1
:1053C00040FF48B900F040FF10B900F040FF00B3C3
:1053D0006848006802281CD10020019001A8002321
:1053E0000122294600903046FEF78EFF002002ABD6
:1053F0000246014600903046FEF786FF0198A0B1B4
:105400004FF080505C490860BFF34F8FBFF36F8F40
:105410000BE00023012229463046FEF7EAFE02ABEC
:10542000002211463046FEF7E4FE0298FEBDF8B5B4
:10543000054600F006FF48B900F006FF10B900F07D
:1054400006FF30B14B480068022802D16FF0050416
:1054500021E005F0004010B16FF003041BE0FEF7FF
:1054600015FD06466B46002211463046FEF7C1FE8A
:1054700001280ED1009C0098A8430090002303222D
:1054800030460099FEF7B5FE012804D04FF0FF34F6
:1054900001E04FF0FF342046F8BD38B500F0D1FEF2
:1054A00048B900F0D1FE10B900F0D1FE38B1314852
:1054B0000068022803D16FF0050000900DE0FEF7B0
:1054C000E5FC04466B46002211462046FEF791FE9D
:1054D000012802D04FF0FF300090009838BD2DE930
:1054E000FC5F05468946164600F0ABFE48B900F061
:1054F000ABFE10B900F0ABFE30B11E4800680228C8
:1055000002D16FF005044FE005F0004010B16FF0DC
:10551000030449E009F00200022802D14FF0000A1A
:1055200000E0AA4600243746FEF72CFA009000BFA0
:105530003B4601AA51460020FEF710FE8046B8F116
:10554000010F27D12C400198044309F0010040B11C
:1055500005EA0400A84200D125E07EB96FF00204FC
:1055600021E005EA040000B11DE03EB96FF002043D
:1055700019E000006800002004ED00E0FEF702FAE8
:105580000099A0EB010BBB4501D9002708E0A7EB70
:105590000B0705E016B96FF0020401E06FF001049B
:1055A000B8F1000FC4D100BF2046BDE8FC9F70B524
:1055B000054600F046FE48B900F046FE10B900F07E
:1055C00046FE30B1FD480068022802D16FF00504A4
:1055D00004E0002415B12846FDF7B5FE204670BD55
:1055E000F8B5064600F02DFE48B900F02DFE10B9C2
:1055F00000F02DFE30B1F1480068022802D16FF0B2
:1056000005050FE00025FEF7BDF900900098341A5B
:1056100034B1E00F20B921466846FDF730FE01E0C5
:105620006FF003052846F8BD70B505462846FFF71C
:1056300013FB044614B1D4E90010884770BD2DE96E
:10564000FE4F0646894692461C460020029000F016
:10565000F8FD00284FD100F0F7FD10B900F0F7FD7C
:1056600018B1D6480068022845D0002E43D0082043
:1056700000F059FE0546002D3DD02E60C5F804A06F
:10568000B9F1000F01D1002700E001274FF0FF38EA
:105690004FF0000B94B1206808B1D4F800B0A068B6
:1056A00028B1E0682C2802D34FF0010808E0A06878
:1056B00030B9E06820B94FF0000801E04FF0000871
:1056C000B8F1010F0BD1BE49A0682B463A46CDE98F
:1056D000001001215846FFF700FA02900BE0B8F1E4
:1056E000000F08D1B6482B463A4601210090584693
:1056F000FFF7D8F902900298BDE8FE8F70B5054615
:105700002E4600F09EFD50B900F09EFD10B900F04D
:105710009EFD18B1A9480068022800D00EB90024E7
:1057200003E03046FFF76BFA0446204670BDF8B53B
:1057300005460E462F4600F084FD48B900F084FD72
:1057400010B900F084FD30B19C480068022802D1F5
:105750006FF0050411E017B96FF003040DE00020AD
:1057600003463246042100903846FEF72DFF0128FB
:1057700001D1002401E06FF002042046F8BDF8B525
:1057800005462E4600F05DFD48B900F05DFD10B9FC
:1057900000F05DFD30B189480068022802D16FF049
:1057A000050418E016B96FF0030414E03046FFF763
:1057B00036FA10B96FF002040DE0002003460246ED
:1057C000032100903046FEF7FFFE012801D100249E
:1057D00001E04FF0FF342046F8BD70B505462E4677
:1057E00000F02FFD50B900F02FFD10B900F02FFD93
:1057F00018B172480068022800D00EB9002403E0F6
:105800003046FFF70CFA0446204670BDF8B5054651
:105810002E4600F016FD48B900F016FD10B900F054
:1058200016FD30B165480068022802D16FF005040A
:1058300018E016B96FF0030414E03046FFF70CFAD5
:105840000746002003460246052100903046FEF739
:10585000BBFE012804D1384600F0F9FD002401E028
:105860006FF002042046F8BD70B50446002600F033
:10587000E8FC00BB00F0E8FC10B900F0E8FC18B14F
:105880004E48006802281BD04FF0FF3564B1A06875
:1058900020B1E068202801D3012506E0A06820B9E6
:1058A000E06810B9002500E00025012D04D1A068B2
:1058B000FBF75EFE064603E015B9FBF786FE0646DB
:1058C000304670BDF8B505460E462F4617B106F0B6
:1058D0007F4010B16FF0030428E000F0B2FC48B93B
:1058E00000F0B2FC10B900F0B2FCD0B1334800684F
:1058F000022816D1002000906A4631463846FCF74F
:10590000A4F810B96FF0020410E03446009868B1B2
:105910004FF080502B490860BFF34F8FBFF36F8F5C
:1059200004E031463846FBF75FFE04462046F8BDEA
:105930002DE9F04105460E462F4617B106F07F408F
:1059400010B16FF003041DE000F07BFC48B900F0DB
:105950007BFC10B900F07BFC78B118480068022885
:105960000BD13846FCF728F8044631463846FCF798
:1059700016F838B96FF0020404E031463846FBF7F8
:10598000D8FF04462046BDE8F08170B505462E4696
:105990000DB900241DE000F054FC48B900F054FC9F
:1059A00010B900F054FC78B10448006802280BD10B
:1059B0003046FCF701F804460BE0000068000020C8
:1059C0002956000804ED00E000213046FBF7B1FF46
:1059D0000446204670BD2DE9F84F80460D46164618
:1059E0001F46C346BBF1000F02D005F07F4010B147
:1059F0006FF003043CE000F024FC48B900F024FC04
:105A000010B900F024FC30B1FA480068022802D135
:105A10006FF005042CE006F0010010B14FF0010911
:105A200001E04FF0000906F0020010B14FF0000A4B
:105A300001E04FF0010A4B4652462946584600976E
:105A4000FBF7CEFE044606F0010040B1A5420FD0A0
:105A500017B16FF001040BE06FF0020408E005EAF3
:105A6000040028B917B16FF0010401E06FF00204DF
:105A70002046BDE8F88F70B505462E4600F0E1FBE4
:105A800048B900F0E1FB10B900F0E1FB30B1D948B2
:105A90000068022802D16FF0050407E016B96FF024
:105AA000030403E000243046FBF79CFF204670BD52
:105AB0002DE9F0470446002600F0C3FB002857D12B
:105AC00000F0C2FB10B900F0C2FB18B1C948006871
:105AD00002284DD00CB1676800E0002707F00100F4
